{
  "_format": "hh-sol-artifact-1",
  "contractName": "Ailice",
  "sourceName": "contracts/Ailice.sol",
  "abi": [
    {
      "inputs": [],
      "stateMutability": "nonpayable",
      "type": "constructor"
    },
    {
      "inputs": [],
      "name": "buyCredit",
      "outputs": [],
      "stateMutability": "nonpayable",
      "type": "function"
    },
    {
      "inputs": [
        {
          "internalType": "address",
          "name": "",
          "type": "address"
        }
      ],
      "name": "creditBalances",
      "outputs": [
        {
          "internalType": "uint256",
          "name": "",
          "type": "uint256"
        }
      ],
      "stateMutability": "view",
      "type": "function"
    },
    {
      "inputs": [
        {
          "internalType": "address",
          "name": "account",
          "type": "address"
        }
      ],
      "name": "getBalanceOf",
      "outputs": [
        {
          "internalType": "uint256",
          "name": "",
          "type": "uint256"
        }
      ],
      "stateMutability": "view",
      "type": "function"
    },
    {
      "inputs": [],
      "name": "getOwner",
      "outputs": [
        {
          "internalType": "address",
          "name": "",
          "type": "address"
        }
      ],
      "stateMutability": "view",
      "type": "function"
    },
    {
      "inputs": [],
      "name": "owner",
      "outputs": [
        {
          "internalType": "address",
          "name": "",
          "type": "address"
        }
      ],
      "stateMutability": "view",
      "type": "function"
    },
    {
      "inputs": [],
      "name": "useCredit",
      "outputs": [
        {
          "internalType": "bool",
          "name": "",
          "type": "bool"
        }
      ],
      "stateMutability": "nonpayable",
      "type": "function"
    }
  ],
  "bytecode": "0x608060405234801561001057600080fd5b50336000806101000a81548173ffffffffffffffffffffffffffffffffffffffff021916908373ffffffffffffffffffffffffffffffffffffffff160217905550610580806100606000396000f3fe608060405234801561001057600080fd5b50600436106100625760003560e01c80636009a2d814610067578063893d20e8146100975780638a2c636e146100b55780638da5cb5b146100d35780638e4e6f06146100f15780639b96eece146100fb575b600080fd5b610081600480360381019061007c9190610375565b61012b565b60405161008e91906103bb565b60405180910390f35b61009f610143565b6040516100ac91906103e5565b60405180910390f35b6100bd61016c565b6040516100ca919061041b565b60405180910390f35b6100db61024c565b6040516100e891906103e5565b60405180910390f35b6100f9610270565b005b61011560048036038101906101109190610375565b6102c9565b60405161012291906103bb565b60405180910390f35b60016020528060005260406000206000915090505481565b60008060009054906101000a900473ffffffffffffffffffffffffffffffffffffffff16905090565b600060018060003373ffffffffffffffffffffffffffffffffffffffff1673ffffffffffffffffffffffffffffffffffffffff16815260200190815260200160002054116101ef576040517f08c379a00000000000000000000000000000000000000000000000000000000081526004016101e690610493565b60405180910390fd5b60018060003373ffffffffffffffffffffffffffffffffffffffff1673ffffffffffffffffffffffffffffffffffffffff168152602001908152602001600020600082825461023e91906104e2565b925050819055506001905090565b60008054906101000a900473ffffffffffffffffffffffffffffffffffffffff1681565b600a600160003373ffffffffffffffffffffffffffffffffffffffff1673ffffffffffffffffffffffffffffffffffffffff16815260200190815260200160002060008282546102c09190610516565b92505081905550565b6000600160008373ffffffffffffffffffffffffffffffffffffffff1673ffffffffffffffffffffffffffffffffffffffff168152602001908152602001600020549050919050565b600080fd5b600073ffffffffffffffffffffffffffffffffffffffff82169050919050565b600061034282610317565b9050919050565b61035281610337565b811461035d57600080fd5b50565b60008135905061036f81610349565b92915050565b60006020828403121561038b5761038a610312565b5b600061039984828501610360565b91505092915050565b6000819050919050565b6103b5816103a2565b82525050565b60006020820190506103d060008301846103ac565b92915050565b6103df81610337565b82525050565b60006020820190506103fa60008301846103d6565b92915050565b60008115159050919050565b61041581610400565b82525050565b6000602082019050610430600083018461040c565b92915050565b600082825260208201905092915050565b7f4f7574206f662063726564697421000000000000000000000000000000000000600082015250565b600061047d600e83610436565b915061048882610447565b602082019050919050565b600060208201905081810360008301526104ac81610470565b9050919050565b7f4e487b7100000000000000000000000000000000000000000000000000000000600052601160045260246000fd5b60006104ed826103a2565b91506104f8836103a2565b92508282039050818111156105105761050f6104b3565b5b92915050565b6000610521826103a2565b915061052c836103a2565b9250828201905080821115610544576105436104b3565b5b9291505056fea2646970667358221220124ef855052879d4170c4d428ab5011a97864e68ace525449d5069b1a146463764736f6c63430008130033",
  "linkReferences": {},
  "deployedLinkReferences": {}
}